:100000000C947F050C949C050C949C050C9416187C
:100010000C949C050C949C050C949C050C949C05DC
:100020000C949C050C94280A0C949C050C949C053B
:100030000C949C050C949C050C949C050C949C05BC
:100040000C949C050C949C050C949C050C949C05AC
:100050000C949C050000000000000000000000005F
:100060000000000000000000000000000000000090
:1000700000000000000000000000F8F84020F8F840
:1000800000F8F82020F8F800F8F80000F8F8000070
:1000900040400010F8F800000000000000000000E0
:1000A0000000000000000000000000000000000050
:1000B00000008080C0C06060E0E0E0E0C0C0F8F810
:1000C000C84C6C6466E2E2C1C0808000000001019F
:1000D0000000010100018180C041C1C08181010196
:1000E0000101030000000001010101000000000007
:1000F0000000FC54141404040404FC000080C0E05C
:1001000030188CCEE7FB793D1E8EC6E7F3F91FE36E
:10011000FF01FFFFCD1973E7C69E3C7DF9F3E3872E
:100120001F7EFCF8E080000003070A1B26345449B8
:10013000EAB49993DD726C3820A0E060202030187A
:10014000080C04000000FF55111100000000FF0022
:10015000FCFF0701FEFEFF0F030000F0FFFFFF3F63
:1001600007C0FCFFFF00003FFFFEF8C0031FFFFCBD
:10017000F001071FFEF8E1018FFFFFF8000000000B
:10018000000080C0E0F030181C0C0C880E4B488C2E
:100190001C387060C08000000000FF551111000085
:1001A0000000FF00071F3C70C30F3F7FF0C0800FAF
:1001B0003F7FFFC000FFFFFFFF000000FFFFFF07C2
:1001C000C0F8FF3F8FC0F07CBF8FCFF03F1F0F0301
:1001D00000000000003E7FFFFFC0000000000000A4
:1001E0000101026419020000C1FF3E000000FF553A
:1001F000111100000000FF000000000001030706CD
:100200000C1913373E3C3973676F7F7F7F70707CAA
:100210007F7F3C363B35161B1D0C0E070303010088
:1002200000000000000000000000000103030706BA
:100230000C0C0C181818180C0C0406030100000014
:1002400000007F555151404040407F0001A701A769
:1002500002A703A7018E01C802C8028E000F020F79
:10026000000D000F010E0000010103010107010153
:100270000301010701010301010701010301010756
:1002800001010301010F0101030101070101030144
:100290000107010103010107010103010107010138
:1002A0000301010F000F020F000E050F000D020DDC
:1002B000010002040300010102020404010102031F
:1002C00004040100020103030205030604000207FF
:1002D00003080400FF26394C72ACE4D8D6E500CA06
:1002E00001AF027804C2FBEAEB31ECE8ED32ECE856
:1002F000ED33ECE8ED35ECE8ED202D2D2D203130FF
:10030000F1203135F1203230F1203330F120343515
:10031000F1203630F1CA2CECE3C2FBEAEBC2EAEB87
:100320002EC7E0ECE5F020CCE0EAF12E20CCE8EDA1
:100330002E202055E0EAEA2E2055E0EAEA2CC252AF
:10034000782CCEEC2028ECEAD1EC2920ECEAD1EC98
:10035000205420EFEEE4F1E22EDFF0EAEEF1F2FCC1
:1003600020D2E0E9ECE5F02020C7E2F3EA202020EB
:1003700020CAEEEDF2F0E0F1F2C7E0ECE5F0EEE2DB
:100380002047782CECEAD1EC20CDEEF0ECFB20CF2E
:10039000C42020202020202020202020C0EAEAF3B2
:1003A000ECF3EBFFF2EEF020F0E0E7F0FFE6E5ED36
:1003B000212020E7E0F0FFE6E5ED212020C2FBEA66
:1003C000EBFEF7E5EDE8E521D1F2E0F2E8F1F2E845
:1003D000EAE02020EEF7E8F9E5EDE02120202020FA
:1003E000C7E0ECE5F02020202020F1EEF5F0E0ED74
:1003F000B8ED2120C8E7ECE5F0E5EDE8E520CDE03B
:10040000F1F2F0EEE9EAE820CDEEF0ECFB20CFC40B
:10041000CA2020CFD0CEC4D3CAD23A2020CDC0D15A
:10042000D2D0CEC9CAC8CAC0CBC8C1D0CEC2CAC039
:1004300020202020202020202020D1EEF5F0E0ED0B
:10044000E8F2FC20D1EEF5F0E0EDE5EDEE20CEF7A0
:10045000E8F1F2E8F2FC2020F1F2E0F2E8F1F2E853
:10046000EAF3D0E5E42EEDE0E7E2E0EDCEF7E8F1E7
:10047000F2E8F2FC3F20C4E02020202020CDE5F26D
:10048000D0C5C42ECDC0C7C2C0CDC0E1F0E8EAEEF1
:10049000F12020203630C0F0E1F3E720202020209A
:1004A0003630C1E0EDE0ED20202020323030C1E0D8
:1004B000EAEBE0E6E0ED20333030C2E8EDEEE3F0C9
:1004C000E0E420203630C3F0F3F8E02020202020A4
:1004D0003630C7E5EBE5EDFC202032303030C4FB90
:1004E000EDFF2020202020203930CAE0EFF3F1F288
:1004F000E0D020393030CAE0EFF3F1F2E0CF203520
:100500003030CAE0E1E0F7EEEA2020343030CAE0D3
:10051000F0F2EEF4E5EBFC323530CAEBF3E1EDE856
:10052000EAE020313030CBF3EA20F0E5EFF72E207F
:100530003830CBF3EA20E7E5EB2E20363030CCE044
:10054000EDE3EE20202020203630CCEEF0EAEEE283
:10055000FCD020343030CCEEF0EAEEE2FCCF20329A
:100560003530CCFFF1EE20F1E22E20323030CDE5F7
:10057000EAF2E0F0E8ED20203630CEE3F3F0E5F6E5
:10058000202020333030CFE5F0E5F620F1EB2E329D
:100590003030CFE5F0F1E8EA202020203630CFEEF1
:1005A000ECE8E4EEF02020323530D0E5E4E8F1204C
:1005B000202031353030D0E5E4FCEAE02020313035
:1005C0003030D1E0EBE0F220202031323030D1E287
:1005D000E5EAEBE0202031343030D5F3F0ECE020D8
:1005E000202020203630DFE1EBEEEAEE2020202034
:1005F0003630CFF0EEF7E5E5202020323030000035
:1006000000000000005F00000007000700147F14D6
:100610007F14242A7F2A1223130864623649552244
:10062000500005030000001C2241000041221C0074
:1006300014083E081408083E08080050300000085E
:10064000080808080060600000201008040200008C
:1006500000000000005F00000007000700147F1486
:100660007F14242A7F2A12231308646236495522F4
:10067000500005030000001C2241000041221C0024
:1006800014083E081408083E08080050300000080E
:10069000080808080060600000201008040200003C
:1006A00000000000005F00000007000700147F1436
:1006B0007F14242A7F2A12231308646236495522A4
:1006C000500005030000001C2241000041221C00D4
:1006D00014083E081408083E0808005030000008BE
:1006E00008080808006060000020100804023E515D
:1006F00049453E00427F4000426151494621414503
:100700004B311814127F1027454545393C4A494959
:100710003001710905033649494936064949291E00
:10072000003636000000563600000814224100143E
:10073000141414140041221408020151090632490C
:1007400079413E7E1111117E7F494949363E414132
:1007500041227F4141221C7F494949417F090909C2
:10076000013E4149497A7F0808087F00417F4100E6
:100770002040413F017F081422417F404040407F9C
:10078000020C027F7F0408107F3E4141413E7F09F9
:100790000909063E4151215E7F091929464649490A
:1007A000493101017F01013F4040403F1F2040206F
:1007B0001F3F4038403F6314081463070870080760
:1007C0006151494543007F41410002040810200067
:1007D00041417F00040201020440404040400001CA
:1007E00002040020545454787F4844443838444428
:1007F0004420384444487F3854545418087E090132
:10080000020C5252523E7F0804047800447D40009E
:100810002040443D007F1028440000417F40007C80
:10082000041804787C0804047838444444387C1460
:10083000141408081414187C7C0804040808545480
:100840005420043F4440203C4040207C1C20402059
:100850001C3C4030403C44281028440C5050503C34
:100860004464544C44000836410000007F000000FE
:100870004136080010080810087846414678000004
:1008800000000000005F00000007000700147F1454
:100890007F14242A7F2A12231308646236495522C2
:1008A000500005030000001C2241000041221C00F2
:1008B00014083E081408083E0808005030000008DC
:1008C000080808080060600000201008040200000A
:1008D00000000000005F00000007000700147F1404
:1008E0007F14242A7F2A1223130864623649552272
:1008F000500005030000001C2241000041221C00A2
:1009000014083E081408083E08080050300000088B
:1009100008080808006060000020100804020000B9
:10092000000000182848281808204820080C0A0948
:100930000A0C1436773614007F221408007F3E1C00
:1009400008000814227F00081C3E7F000000000001
:100950007E4343437E7E6363637E7E7373737E7EDA
:100960007B7B7B7E7E7F7F7F7E387F787F38000633
:1009700009090644445F444400417F410000447D2E
:1009800040007C040404067C2020201C067E027E9D
:1009900002000018180038555455187F0408107FBD
:1009A000385454442822142A14082040443D004658
:1009B00049494931085454542000457C41007E1176
:1009C00011117E7F494949317F494949367F0101EB
:1009D0000103603E21217F7F4949494177087F0813
:1009E0007722414949367F1008047F7F1009047F30
:1009F0007F08142241403E01017F7F020C027F7F6D
:100A00000808087F3E4141413E7F0101017F7F0987
:100A10000909063E4141412201017F010127484861
:100A2000483F1E217F211E63140814633F20203F8E
:100A300060070808087F7F407F407F3F203F207F7E
:100A4000017F4848307F4830007F007F484830228F
:100A50004149493E7F083E413E462919097F2054BD
:100A60005454783C4A4A4A307C545428007C04044C
:100A7000040C603824247C38545454186C107C10B6
:100A80006C00445454287C2010087C7C2112097C82
:100A90007C10284400403804047C7C0810087C7CCE
:100AA0001010107C38444444387C0404047C7C14CA
:100AB000141408384444440004047C04040C5050CA
:100AC000503C08147C140844281028443C20203C46
:100AD000600C1010107C7C407C407C3C203C207CD6
:100AE000047C5050207C5020007C007C50502028FA
:100AF000445454387C10384438485434147C1124FD
:100B00001FBECFE5D8E0DEBFCDBF10E0A0E6B0E06D
:100B1000ECEDFFE302C005900D92AC38B107D9F7B8
:100B200022E0ACE8B0E001C01D92A33EB207E1F7BD
:100B30000E94361E0C94EC1F0C940000663068F482
:100B400026E0829FC001112424E5629F800D911D43
:100B500011249093E2028093E10208959498662311
:100B600011F0C49A01C0C4988FB9779BFECF949AB4
:100B70000895CF93C82F87FD0EC060E081E20E94E8
:100B8000AE0560E08C2F80680E94AE0560E080E2D8
:100B9000CF910C94AE05CF910895853598F56133CA
:100BA00088F5962F969596959695E82FF0E084E532
:100BB000989FE00DF11D11246770E951FF4F2081CE
:100BC00041110AC081E090E0062E01C0880F0A940E
:100BD000EAF78095282315C0413049F481E090E080
:100BE000062E01C0880F0A94EAF7282B0AC042306B
:100BF00041F481E090E0062E01C0880F0A94EAF7E4
:100C00002827208308957F928F929F92AF92BF9260
:100C1000CF92DF92EF92FF920F931F93CF93DF93C8
:100C2000982EA62E842E722E84E5891508F45EC0B7
:100C3000841708F45BC080E3861708F457C0821756
:100C400008F454C0A22FB0E0A61BB109E42FF0E0D5
:100C5000E919F109B7FF05C0B195A195B1091FEFD9
:100C600001C011E0F7FF06C0F195E195F109BB2441
:100C7000BA9402C0BB24B394ED01CC0FDD1F7F01F9
:100C8000EE0CFF1C402F6A2D892D0E94CD05CE153C
:100C9000DF05B4F49701359527956E01C21AD30A82
:100CA000981421F1D7FC03C0A10ECE18DF089B0CCD
:100CB000CC0EDD1E402F6A2D892D0E94CD05F0CF70
:100CC000FE01F595E7956701CE1ADF0AA71471F0CA
:100CD000D7FC03C09B0CCC1ADD0AA10ECE0CDF1C86
:100CE000402F6A2D892D0E94CD05F0CFDF91CF9145
:100CF0001F910F91FF90EF90DF90CF90BF90AF903A
:100D00009F908F907F900895AF92BF92CF92DF9285
:100D1000EF92FF920F931F93CF93DF93C82FF62E7E
:100D2000D42F122FD02E84E6801708F46EC0842FA3
:100D300090E08C1B910963E070E00E943E1FB62E8C
:100D400001E0612F8C2F0E940306212F4D2F52E0CE
:100D5000E52EEF0C6E2D8D2F0E940306212F4C2FB8
:100D60006E2D8C2F0E9403062E2D4D2F6E2D8C2F55
:100D70000E940306CD2ECB18EC2EEB0C61E06F0D1C
:100D8000262F4C2D8E2D0E9403062F2D4C2D6F2DBE
:100D90008E2D0E940306E12FF0E0EF19F10935973F
:100DA000DE9EC001DF9E900D112464E670E00E947B
:100DB0003E1FD62EE12C6EEFC62EC10E7EEFB72E53
:100DC000BD0EE2E0AE2EAC0EED1450F46C2D6E199B
:100DD00001E0262F4B2D8A2D0E940306E394F4CFC9
:100DE000812F8F194BEFF42EF80E1D5F181BD25078
:100DF000CE5FDF1450F400E0212F4D2F612F8C2F98
:100E00000E940306FA941F5FF4CFDF91CF911F91E8
:100E10000F91FF90EF90DF90CF90BF90AF9008952B
:100E20006F927F928F929F92AF92BF92CF92DF92FA
:100E3000EF92FF920F931F93CF93DF937C01862E47
:100E40006A01E901B02E84E6801708F474C012E04C
:100E5000160FA42EFEEF6F2E640E9E2CA2E07A2EAB
:100E60007E0C01E0462D6C2F872D0E9403062C2F4F
:100E7000462D682D862D0E9403062C2F472D682DA8
:100E8000872D0E940306282D462D682D872D0E9450
:100E900003067C2E7A9483948FEF8C0D272D482F98
:100EA000682D0E94030681E08E0D272D482F682DA6
:100EB0000E9403068C2E8A948A94282D4C2D612F33
:100EC0008C2D0E940306282D4E2D612F8E2D0E9401
:100ED0000306CE18DF0888E0C81AD108BC9CC00100
:100EE000BD9C900D112464E670E00E943E1FE12C31
:100EF000F12C219784E0980E8CEFA80EC92CC60E19
:100F0000D12EDE0CED2DF0E0EC17FD07A4F400E08F
:100F10002D2D4A2D6D2D892D0E940306BB2039F001
:100F200001E02D2D4C2D6D2D892D0E9403068FEF94
:100F3000E81AF80AE5CFDF91CF911F910F91FF904A
:100F4000EF90DF90CF90BF90AF909F908F907F9069
:100F50006F900895DF92EF92FF920F931F93CF93BC
:100F6000DF93D82EF62E84E58D15F8F080E38617F2
:100F7000E0F0641720F0162F141B1F5F01C010E073
:100F8000C22FD0E0CD0DD11DF11678F0ED2C2E2D15
:100F900030E02C173D073CF4402F612F8E2D0E942E
:100FA000CD05E394F4CF1F5FEFCFDF91CF911F9179
:100FB0000F91FF90EF90DF9008958E3010F40C9415
:100FC0009E050895E8EAF0E0119280E0E63BF8071C
:100FD000D9F70895E7EEF0E0119282E0EF3DF807CF
:100FE000D9F70895CF93DF936091E1027091E20207
:100FF000DB0115969B014EEF55E0461B570B95E024
:10100000899F400D511D1124FA01E20FF31FE49155
:10101000E901C951DF4FE8832F5F3F4F2A173B0794
:1010200099F76A5F7F4F7093E2026093E102F901E2
:10103000E951FF4F1082DF91CF910895CF93DF9355
:101040001F92CDB7DEB749830E94DD074981842F07
:101050000F90DF91CF910C94F2070F931F93CF93D2
:10106000DF93082F0E94DD0710E0CFE0D0E0C01B27
:10107000D109812F90E08C179D074CF4FC01E855B5
:10108000FF4F808181110E94F2071F5FF2CFDF9135
:10109000CF911F910F910C94E2071F93CF93DF9391
:1010A00025E0829FC00111244091E1025091E202AB
:1010B000BA0120E030E082509A4FDCE018E1FC01F8
:1010C000E20FF31FE491FE2FF270AF2FAA0FAF0FC4
:1010D000AA0FBE2FB170FB2FFF0FFB0FAF2BFE2F00
:1010E000F470FD9FF02D1124AF2BFE2FF870F19FAF
:1010F000F02D1124AF2BE295EF70FE2FF270CF2F61
:10110000CC0FCF0FCC0FBE2FB170FB2FFF0FFB0FFB
:10111000CF2BFE2FF470FD9FF02D1124CF2BE87004
:10112000E19FE02D1124CE2BFB01E951FF4FA0835D
:10113000A183DF01AC5ABF4FCC93EB5AFF4FC08362
:101140006E5F7F4F2F5F3F4F2530310509F0B7CFDE
:10115000FA01E951FF4F1286445F5F4F5093E2025C
:101160004093E1021386DF91CF911F910895CF93B1
:10117000DF93C8EAD0E0899181110E94F20780E0F4
:10118000C63BD807C1F7DF91CF910C94E2070F93CC
:101190001F93CF93DF93182F8E30E8F46530D8F487
:1011A0000E94DD0700E0CEE0D0E0C11BD109802F16
:1011B00090E08C179D074CF4FC01E855FF4F8081AF
:1011C00081110E944D080F5FF2CFDF91CF911F91E7
:1011D0000F910C94E207DF91CF911F910F91089529
:1011E000CF93DF93EC018991882319F00E94F207D5
:1011F000FACFDF91CF910895CF93DF93EC018991DE
:10120000882319F00E944D08FACFDF91CF910895FD
:101210007F928F929F92AF92BF92CF92DF92EF9286
:10122000FF920F931F93CF93DF93C62FC22E782E7A
:10123000770C780E770CE42EEE0CE40EEE0C172DE6
:101240001E0DCC0FCC0FCC0F88E0F82EFC0ED72D46
:101250001D1748F000E02F2D4D2F6C2F8D2F0E9471
:101260000306DF5FF5CFB3E0BB2EBC0EAA24A39428
:10127000AC0ED5E09D2E9C0EC72DD0E004E6802E4E
:10128000F12CD12C1715F8F0E72DF0E0EC1BFD0B3D
:101290008E9EC0018F9E900D1124B7010E943E1FAB
:1012A0006C157D0544F401E0292D472D6A2D872D0D
:1012B0000E94030605C041E06B2D872D0E94CD05DD
:1012C00073947394DFCFDF91CF911F910F91FF90B3
:1012D000EF90DF90CF90BF90AF909F908F907F90D6
:1012E00008951F93CF93DF9360E080E80E94AE05DE
:1012F00060E080E40E94AE058091A700813021F07B
:10130000C7EED0E010E008C0C6E661E080E00E94D1
:10131000AE05C150D1F7F4CF61E089910E94AE05CE
:101320008091A700813051F41F5F143539F412E128
:1013300061E080E00E94AE051150D1F782E0CF3D20
:10134000D80751F7DF91CF911F910895E7EEF0E0B4
:10135000119282E0EF3DF807D9F70C947109A7EEDE
:10136000B0E020E030E0FC01E20FF31FE491ED93E8
:101370002F5F3F4F283F41E03407A9F70C947109D4
:10138000873A910551F0883C910561F08E389105BE
:1013900069F48EE28A95F1F703C086E38A95F1F746
:1013A00000C0089581E48A95F1F700000895DF9266
:1013B000EF92FF920F931F93CF93DF939091620070
:1013C000992309F43DC08F3F09F43AC0882329F0DE
:1013D0005DE2E52EFF24F39404C042EEE42E45E0E6
:1013E000F42E90E0FC01EE0FFF1FE45BFD4FD49064
:1013F000FC01EE0FFF1FE35BFD4FE491F8940E2F0D
:1014000010E0DD20D1F0A895C0E0D0E0A99AAB981B
:10141000C8010E94C009A998AB9AC8010E94C009DE
:101420002196CE15DF0590F3DA9439F087EA91E63C
:101430000197F1F700C00000E4CF7894A998AB9829
:10144000DF91CF911F910F91FF90EF90DF90089562
:101450001F920F920FB60F9211242F938F939F9389
:1014600080918E008F5F80938E0080918E008430FB
:1014700010F010928E0081E08093600080936100F4
:1014800080919D0090919E00019690939E00809384
:101490009D0080919D0090919E008135934C20F09D
:1014A00010929E0010929D009F918F912F910F900E
:1014B0000FBE0F901F90189580B38F70B29904C023
:1014C0008F3071F481E008958E3061F08B3061F0DF
:1014D000873061F08D3061F08F3061F087E00895E2
:1014E00082E0089583E0089584E0089585E00895FA
:1014F00086E0089580E0089580918D00813019F490
:1015000086E080939C008EE490E09093E2028093CA
:10151000E10280919C0087550C94F2076F927F92B4
:101520009F92AF92BF92CF92DF92EF92FF920F9372
:101530001F93CF93DF931F92CDB7DEB789830E94AD
:10154000EA07898126E0829FC0011124612C712C59
:10155000FC01E055FD4F6F019C012F543D4F590197
:101560006BE0962EF601E60DF71D649182E00E9475
:101570009E057501E60CF71C00E010E0F701849170
:10158000F801989EE00DF11D1124EF56FC4F849157
:101590000E94F2070F5F1F4F0B30110579F7F2E041
:1015A0006F0E711C26E062167104E1F60E947C0A3F
:1015B0000F90DF91CF911F910F91FF90EF90DF90EF
:1015C000CF90BF90AF909F907F906F900C947109D7
:1015D00080916800882321F080916900811102C008
:1015E00013BC08958C5283BD089585EC87B94AE0F9
:1015F00080E090E064ECA8953699FECFA895F89429
:1016000066B93699FECFA89554B125B130E0322F96
:101610002227250F311D820F931F7894415059F7CF
:101620009093E0028093DF020895CF93DF9300D080
:1016300000D0CDB7DEB79C838B832CEC37E08B8159
:101640009C81892B79F03A83298389819A8101973A
:101650009A838983892BC9F78B819C8101979C830D
:101660008B83EDCF0F900F900F900F90DF91CF9164
:101670000895959A8D9ABC9A8C9ABD9ABF9A81E0EA
:1016800090E00E94150B80E58DB981E08EB99598A8
:1016900084E190E00E94150B959A949A60E081E2B3
:1016A0000E94AE058091710060E08C5F0E94AE05E3
:1016B0008091A700813051F48091A20028E0829FA0
:1016C000C001112460E088600E94AE058091700026
:1016D00060E0805F0E94AE058091A700813031F408
:1016E00080916D0060E0805C0E94AE0580916F008B
:1016F00060E080580E94AE058091A7008130C1F45F
:101700002091A40040E1249F900111248091A30026
:1017100048E0849FC0011124822B80622091A600A2
:1017200094E0299F9001112460E0822B0E94AE0575
:101730002091A60044E0249F900111248091A500EF
:10174000880F822B60E080620E94AE0590916E004F
:10175000892F880F892B857060E088600E94AE0514
:101760000C94A6090F931F93CF93DF931F92CDB7CD
:10177000DEB7082F69830E945C0A182F69818013E5
:1017800026C080919F00811117C081E080939F0047
:1017900080919F008F30C8F487E99AE30197F1F7B1
:1017A00000C000000E945C0A811311C090919F004C
:1017B0009F5F90939F00ECCF81E080939F00862FE6
:1017C00090E0880F991F0E94150B80E001C081E016
:1017D0000F90DF91CF911F910F9108958F929F925B
:1017E000AF92BF92EF92FF927C01845B91098234A9
:1017F000974258F5209163003091640040E050E03A
:1018000060E070EE8DE69BE10E94741FAAE0B0E0FC
:101810000E94A21F4B015C01C70105966AE070E0BF
:101820000E942A1F9B0140E050E0C501B4010E94C4
:10183000741F2A5D3540410951092115310581E0A8
:101840004807510510F4C90102C08FEF9FEFFF90C8
:10185000EF90BF90AF909F908F9008950E94EE0BF5
:101860008F3F2FEF9207B1F09C0140E050E060E025
:1018700071EE85EF95E00E94741F2B5F3F4F4F4F35
:101880005F4FCA01B9012AE030E040E050E00E9419
:10189000741FC90108952F923F924F925F926F92E9
:1018A0007F928F929F92AF92BF92CF92DF92EF92F0
:1018B000FF920F931F93CF93DF93CDB7DEB7C8543A
:1018C000D1090FB6F894DEBF0FBECDBF9E012F5FCA
:1018D0003F4F3EAF2DAF88E2D9011D928A95E9F7BF
:1018E0008091DF029091E0020E942E0C8C01E0902A
:1018F0009800F12CEE0CFF1CF701EF5BFF4F7F010E
:10190000CF010E94C41F6C018F3FFFEF9F07A1F022
:101910002FEFC21AD20AB601C7010E94D71F31E0C9
:10192000C316D10449F42090DF023090E0022196E2
:101930003FAE2EAE219785C140909800A42CB12CCB
:10194000C501880F991F87579F4F0E94C41F239678
:101950009FAF8EAF23970E942E0C7C01C501880F8C
:10196000991F8F529F4F0E94C41F25969FAF8EAF25
:1019700025970E942E0C5C0144E1449E2001112415
:10198000CE0189963C01812C912CD201A75EBE4FDD
:101990002D01C201880D991D0E94BC1FF301819386
:1019A0003F01FFEF8F1A9F0A24E18216910489F705
:1019B0000A151B0509F4C3C1EA14FB0409F53091AB
:1019C000DF022091E002C60101970E151F0578F491
:1019D0003FAF21962FAF219721E030E03A83298352
:1019E00098A78FA323962EAC3FAC23972AC1232E12
:1019F000322E21E030E038A72FA39A83898336C1A5
:101A00000E151F0571F4DE011196CE01CD96FE0173
:101A1000B996219130E02D933D93E817F907C9F766
:101A200077C10A151B0518F10E151F0500F5980161
:101A300040E050E02A193B0941095109A4E1B0E016
:101A40000E94A21F97012A193B0940E050E00E9422
:101A5000521FDE011196CE01CD96FE01B99641913D
:101A600050E04D935D93E817F907C9F7C3C0E0163E
:101A7000F10608F061C02090DF023090E00297018B
:101A800040E050E02A193B0941095109AAE0B0E0C1
:101A90000E94A21F2B013C01CE01CD969EAF8DAFBF
:101AA000DE0199962196BFAFAEAF2197C12CD12C04
:101AB00076010A191B09C801A0E0B0E029968CAF95
:101AC0009DAFAEAFBFAF29973AE0832E912CA12CEA
:101AD000B12CC701B60129962CAD3DAD4EAD5FAD21
:101AE00029970E94521F2B5F3F4F4F4F5F4FCA01F4
:101AF000B901A50194010E94521F2196AEADBFAD60
:101B000021973D912196BFAFAEAF2197FE0131964F
:101B1000E20FF11DE20FF11D80819181830F911D74
:101B200091838083C40CD51CE61CF71CEDADFEAD83
:101B3000AE17BF0771F6F9C00A151B0508F081C082
:101B40002701612C712C2091DF023091E002219657
:101B50003FAF2EAF219784E1D82E4A185B08610869
:101B6000710896EFC92EE01AF10A00E010E02AE0B1
:101B7000822E912CA12CB12CDA942D2C312C4C2DB1
:101B800091014203D001439FB00D1124A853BF4FD0
:101B9000A30192010E94AD1FA80197010E94521F4C
:101BA0006DEC70E080E090E0621B730B840B950B92
:101BB000A50194010E94521F243108F023E1FE0187
:101BC0003196E20FF11DE20FF11DA9E2B0E0AC0F7A
:101BD000BD1FA20DB31D2C9180819181820F911D9B
:101BE00091838083D110C8CF23962EAC3FAC23972E
:101BF00020E00FC0243108F04AC025968EAD9FAD7D
:101C0000259721969FAF8EAF219723962EAC3FACA0
:101C10002397FE013196E20FF11DE20FF11D808145
:101C20009181019691838083FE013196CE01899640
:101C3000219131912F3F310509F018F4E817F90788
:101C4000B9F72196AEADBFAD21972596EEADFFADAC
:101C50002597AE17BF0751F08091980090E0880F4C
:101C6000991FBD018F529F4F0E94D71F23962EAD03
:101C70003FAD23972216330651F08091980090E0F3
:101C8000880F991FB10187579F4F0E94D71FCE0120
:101C900001966C017E0199E2E90EF11C00E010E072
:101CA000F4E1BF2ED6016D917D916D01F701819117
:101CB0007F0190E06817790761F0809198009801A2
:101CC000B89E200D311D1124C901875E9E4F0E94D0
:101CD000CA1F0F5F1F4F0431110521F7C85BDF4F8B
:101CE0000FB6F894DEBF0FBECDBFDF91CF911F912D
:101CF0000F91FF90EF90DF90CF90BF90AF909F90AB
:101D00008F907F906F905F904F903F902F900895AD
:101D100025968EAD9FAD259721969FAF8EAF2197CB
:101D200023962EAC3FAC239708C02596AEADBFAD31
:101D300025972196BFAFAEAF219723E16ACF0E154D
:101D40001F0509F071CE5FCE0F931F93CF93DF93E2
:101D50009AE0899F80011124C0E0D0E00C501C4F14
:101D6000F801EC0FFD1F84910E94F2072196CA3002
:101D7000D105B1F7DF91CF911F910F910895FF9297
:101D80000F931F93CF93DF931092E2021092E10220
:101D900087EA0E94F20783E00E94A40E60919800F7
:101DA0006F5F80919400681B80E00E949E0586EA28
:101DB0000E94F207C0E0D0E0ECE0FE2E6C2F6F5FD7
:101DC00081E00E949E0500E010E080919400FE01F9
:101DD000E80FF11DEE31F1057CF4FE9EC001FF9E7F
:101DE000900D1124800F911F86579B4FFC01849109
:101DF0000E94F20780E20EC07E9773E0EE0FFF1F95
:101E00007A95E1F7E00FF11FE954FF4F80810E94BE
:101E1000F2078AE20F5F1F4F08301105B1F60E94EA
:101E2000F20788E790E00E94F00885EA0E94F20736
:101E30002196C530D10509F0C1CF82EA90E0909398
:101E4000E2028093E10280919400882319F083EAF2
:101E50000E94F20782EF91E09093E2028093E10208
:101E6000809194008F3140F481EADF91CF911F91EE
:101E70000F91FF900C94F207DF91CF911F910F917A
:101E8000FF9008950F931F93CF93DF9398E0899F5E
:101E900080011124C0E0D0E00F5A1C4FF801EC0F74
:101EA000FD1F84910E94F2072196C830D105B1F739
:101EB000DF91CF911F910F9108950F931F93CF93AF
:101EC000DF9396E0899F80011124C0E0D0E00F5D90
:101ED0001C4FF801EC0FFD1F84910E94F207219620
:101EE000C630D105B1F7DF91CF911F910F910895C1
:101EF0000F931F93CF93DF9394E0899F8001112468
:101F0000C0E0D0E00B511D4FF801EC0FFD1F849194
:101F10000E94F2072196C430D105B1F7DF91CF912D
:101F20001F910F910895FF920F931F93CF93DF930B
:101F300047EA60E080E00E941E0887E00E94420FAE
:101F40008CE00E94780F609195006F5F8091930004
:101F5000681B46EA80E00E941E08C0E0D0E0FCE07A
:101F6000FF2E6C2F6F5F81E00E949E0500E010E065
:101F7000809193009E01280F311DF29EF001F39E87
:101F8000F00D1124E00FF11FE657FB4F84910E94E2
:101F9000F2070F5F1F4F0C30110551F72196C53026
:101FA000D105F9F680919300882329F043EA61E096
:101FB0008DE00E941E08809193008A3150F441EA1E
:101FC00065E08DE0DF91CF911F910F91FF900C9410
:101FD0001E08DF91CF911F910F91FF9008950F93ED
:101FE0001F93CF93DF9388E790E09093E202809372
:101FF000E10282E790E00E94F008C2E2D0E010E047
:10200000012F2DE030E043E550E069E070E08AE226
:1020100090E00E9410071D5F153608F014E60E943C
:1020200071092197209761F7DF91CF911F910F914F
:1020300008958F929F92BF92CF92DF92EF92FF927C
:102040000F931F93CF93DF9300D0CDB7DEB7B82E99
:102050007B012A8349830E94E20780919F002A81A5
:102060004981811109C080918E0031E0823028F0D1
:10207000013019F430E001C031E001E010E060E02F
:1020800070E0E22FF0E0E40FF11D31978AE06E1767
:102090007F0748F4D8018A9F80018B9F100D11247F
:1020A0006F5F7F4FF4CFC701B8010E942A1F6115EF
:1020B000710541F4423030F0BB2021F080E2809382
:1020C000A8000AC0311104C080E28093A80003C0B8
:1020D000605D6093A800B12CC8016AE070E00E94C6
:1020E0002A1F4B01B110BA9442E0AAE0CA2ED12CAB
:1020F0000FEF040F3097C1F1822F90E010E0E81746
:10210000F90769F4222359F0311102C080E201C0BD
:102110008EE2D801A855BF4F8C932F5F23C0311199
:1021200005C0D801A855BF4F80E213C0C701B40154
:102130000E942A1FCB01B6010E942A1F009711F4AA
:10214000B11003C0805DB12C01C080E2D801A85558
:10215000BF4F8C93C401B6010E942A1F4B01B110DE
:10216000BA9431974F5FC4CF0F900F90DF91CF910A
:102170001F910F91FF90EF90DF90CF90BF909F90B5
:102180008F9008950F9320918F0030919000203A06
:1021900081E03807B8F52D3781E0380770F049E164
:1021A000429FC001439F900D11248C51954263E2E0
:1021B00070E00E942A1F0BE411C0293681E0380725
:1021C00078F042E3429FC001439F900D1124805557
:1021D000964464E170E00E942A1F09E1060F15C0D1
:1021E0002D3281E0380780F049E1429FC001439FD2
:1021F000900D11248C549D416CE370E00E942A1FC5
:10220000062F03C004E601C000E02CE140E362E0D9
:1022100082E20E94840660918F007091900000E03D
:1022200022E041E080E00E94191064E081E00E9419
:10223000C7088BE790E00F910C94FC080F9300E027
:102240000E9419100F910C94B708CF93DF936091FF
:102250009A006F5F80E00E949E0586EA0E94F20766
:10226000D0E0C1E0CD0F6C2F81E00E949E058D2F44
:102270000E94A40E88E790E00E94F00885EA0E9480
:10228000F207C33011F0DC2FECCF8AEA91E0909393
:10229000E2028093E10283E00E945D0F60918F0073
:1022A0007091900022E041E080E00E941E118BE7D7
:1022B00090E0DF91CF910C94F0084F925F927F9263
:1022C0008F929F92AF92BF92CF92DF92EF92FF9246
:1022D0000F931F93CF93DF931F92CDB7DEB78091FB
:1022E000DF029091E0020E942E0C6C018F3F2FEFD5
:1022F000920719F41092A10003C081E08093A1001D
:102300000091980010E0C801880F991F87579F4FD0
:102310000E94C41F0E942E0C7C01C801880F991FC7
:102320008F529F4F0E94C41F0E942E0C2C011092AE
:10233000E2021092E10287EA0E94F2078091970080
:10234000843049F48091A000813029F48091970075
:10235000833050F190C000E010E09CE0B92E8091F5
:102360009800E82FF0E08E3160F4BE9EC001BF9E61
:10237000900D1124800F911F86579B4FFC01849173
:102380000BC07E9783E0EE0FFF1F8A95E1F7E00F09
:10239000F11FE954FF4F80810E94F2070F5F1F4F2A
:1023A00008301105E1F6D2CF80918C00882309F422
:1023B00062C0E414F50409F45EC0A60160E070E0B8
:1023C000C201A0E0B0E0F701E419F509C414D50496
:1023D00028F19A01AB01281B390B4A0B5B0BA4E6D1
:1023E000B0E00E94A21F9F0140E050E00E94521FF7
:1023F000CA01B901273EF3E03F0738F400E020E0CE
:1024000043E082E00E94191006C067E870E088EAA5
:1024100090E00E94B51F60E089E028C04C015D019A
:10242000841A950AA60AB70AA5019401A4E6B0E0A9
:102430000E94A21F9F0140E050E00E94521FCA016B
:10244000B9012336310538F400E020E042E081E0B4
:102450000E94191006C068E870E088EA90E00E94C7
:10246000B51F8DE20E94F20760E08AE00E942D080D
:1024700085E20E94F20780919700823008F0B5C093
:10248000811102C046EA01C040E261E080E00E94A2
:102490001E0880E00E945D0F80918C00811104C0B5
:1024A00086E00E945D0F14C02FEFC216D20639F4E9
:1024B0006EE770E088EA90E00E94B51F07C000E078
:1024C00021E044E0B60183E00E9419100E94B708A1
:1024D00085EA0E94F20780919700813049F480914B
:1024E0008C0063E00E941E1F913011F446EA01C087
:1024F00040E262E080E00E941E08CD20C09431F0EE
:1025000080918C0063E00E941E1F01C090E086E075
:10251000890F99830E94A40E9981913029F445EA8C
:1025200062E08DE00E941E0882E091E09093E2025A
:102530008093E10281E00E945D0F8FEFE816F806BC
:1025400029F48EE790E00E94F00806C021E044E004
:10255000B70183E00E941E1186E591E09093E202AC
:102560008093E10282E00E945D0F9FEF49165906B9
:1025700029F48EE790E00E94F00806C021E044E0D4
:10258000B20183E00E941E118AEA91E09093E20278
:102590008093E10285E00E94420F84ED91E09093E8
:1025A000E2028093E1028091980090E0880F991FE9
:1025B0008F5B9F4F0E94C41F20E045E0BC0184E078
:1025C0000E941E1181EA0F90DF91CF911F910F9110
:1025D000FF90EF90DF90CF90BF90AF909F908F9043
:1025E0007F905F904F900C94F207823009F00CC1FD
:1025F00080918C008823C9F0EFEFCE16DE0639F407
:102600006EE770E088EA90E00E94B51F07C000E026
:1026100021E044E0B60183E00E94191061E081E00E
:102620000E942D0887E00E945D0F43EA61E08DE083
:102630000E941E088AE491E09093E2028093E102F6
:1026400081EA0E94F20784EA91E09093E20280938B
:10265000E10280E090E0FC01E45AFD4FE491DC01EE
:10266000A557BD4FEC93019684359105A1F788EFEE
:1026700091E09093E2028093E102A0909800F4E14F
:10268000AF9E5001112400E010E0812C9501275EDF
:102690003E4F5901C501800F911F0E94BC1F881633
:1026A00008F4882E0F5F1F4F0431110599F7811030
:1026B00005C080918C0081112AC062C11CE0A12C50
:1026C000B12CB4E17B2E912C80919800F501789E7D
:1026D000E00DF11D1124CF01875E9E4F0E94BC1FAB
:1026E000F6E18F9FC0011124B4010E943E1F462FC6
:1026F000662331F001E023E066E2812F0E94AA0701
:102700002FEFA21AB20A1D5F1834F1F6D2CFE414EB
:10271000F50409F435C1C414D504F8F0CE14DF046F
:10272000C1F0960140E050E02419350941095109F2
:10273000ACE3B0E00E94A21F97012419350940E0E4
:1027400050E00E94521F245F3F4F24353105E8F4CA
:1027500002C027E430E0122F1BC0920140E050E09D
:102760002C193D0941095109ABE3B0E00E94A21FB9
:1027700097012419350940E050E00E94521F2D3086
:10278000310528F41CE0121B03C013E501C010E062
:1027900002E02FE2412F6DE2812F0E9403061123F8
:1027A00091F02FE28FEF810F482F6EE20E94030617
:1027B000123048F042E06FE28EEF810F0E94CD05AB
:1027C000133508F0DDC002E02FE281E0810F482FD1
:1027D0006EE20E940306123508F0D2C042E06FE2BA
:1027E00082E0810F0F90DF91CF911F910F91FF90A9
:1027F000EF90DF90CF90BF90AF909F908F907F90A1
:102800005F904F900C94CD0586E390E09093E202A8
:102810008093E10286E790E00E94F0088091A0009A
:10282000811131C0809198008E3110F005E001C017
:1028300004E012E0612F81E00E949E0587E0810F95
:102840000E94A40E1F5F1017A8F3053019F48EE242
:102850000E94F20760919700660F645046EA80E09C
:102860000E941E0843EA61E08DE00E941E0845EACE
:1028700063E08DE00E941E08053009F081C045EA42
:1028800064E08DE06BC0809197008330E1F48AEBC7
:1028900090E09093E2028093E1028CE00E94A40E0B
:1028A00043EA64E080E00E941E0880E20E94F20792
:1028B0008DE00E94A40E80E20E94F20785EA0E9449
:1028C000F20717EA48C080919900882339F047EA57
:1028D00062E081E00E941E0810E201C017EA86E073
:1028E00090E09093E2028093E10280E20E94F2077E
:1028F0008EE00E94A40E8EE20E94F2078AEB90E026
:102900009093E2028093E102E12CF12C80919800F7
:10291000F70138E0839FE00DF11D1124E953F040E9
:1029200080810E94F2078FEFE81AF80A98E0E91612
:10293000F10461F780919900873030F480E20E94C1
:10294000F20785EA0E94F2078091990044EA63E069
:102950008D5F0E941E08412F60E080E00F90DF91A4
:10296000CF911F910F91FF90EF90DF90CF90BF908C
:10297000AF909F908F907F905F904F900C941E0827
:102980000F90DF91CF911F910F91FF90EF90DF900B
:10299000CF90BF90AF909F908F907F905F904F901F
:1029A0000895FF920F931F93CF93DF931092E2024B
:1029B0001092E1028091A000813011F480E201C008
:1029C00087EA0E94F20784E00E94A40E109196000C
:1029D000153008F053C01F5F00E0C9E0D0E0FF24CD
:1029E000F394F00E6F2D81E00E949E05802F0E94CF
:1029F000420F011104C0809167008B5F16C0013047
:102A000081F48091690024E6829FC0011124BE01F7
:102A10000E943E1F262F43E062E089E00E940809E1
:102A200016C0023029F480916A000E94780F0FC00E
:102A3000033021F480916200835FF7CFE0916C0056
:102A40006E2F70E020E044E083E00E941E11809130
:102A5000A000813031F480919600081304C044EA4C
:102A600003C045EA01C040E26F2D8DE00E941E08C0
:102A700085E0F81609F497C00F2DB1CF0E94F50A32
:102A80001091960013501092E2021092E102809190
:102A9000A000813011F480E201C083EA0E94F207B5
:102AA00080E20E94F20785E00E94A40E8EEA90E088
:102AB0009093E2028093E10284E00E945D0F6091B6
:102AC00091007091920023E042E081E00E941E118B
:102AD0008091A000813031F480919600853021F4FE
:102AE00084EA03C085EA01C080E20E94F20782E026
:102AF00091E09093E2028093E10285E00E945D0FF5
:102B000080E20E94F2078091DF029091E0020E9431
:102B1000EE0B8F3F2FEF920739F465E870E088EAFB
:102B200090E00E94B51F07C000E020E045E0BC0136
:102B300082E00E94191063E088E00E942D088091D5
:102B4000A000813031F480919600863021F484EA2F
:102B500003C085EA01C080E20E94F20784EA91E0A6
:102B60009093E2028093E10286E00E94420F8091FE
:102B7000DF029091E0020E942E0C8F3F2FEF920710
:102B800039F46EE770E088EA90E00E94B51F07C054
:102B900000E021E044E0BC0183E00E94191065E000
:102BA00088E00E942D08612F80E00E949E058091A0
:102BB000A000813011F487EA01C086EADF91CF914D
:102BC0001F910F91FF900C94F20780916000882371
:102BD00069F10E94EA0780916B00811107C0809122
:102BE0008D00882319F00E94C2101AC080919B00AA
:102BF000811103C00E94251113C0813019F40E9475
:102C0000BF0E0EC0823019F40E945D1109C08330DE
:102C100019F40E94D11404C0843011F40E94930F5F
:102C20000E947C0A0E947109109260000895CF9260
:102C3000DF92EF92FF920F931F93CF93DF9380E188
:102C400090E00E94BC1F853608F080E580936C0000
:102C50008FE090E00E94BC1F853008F082E08093F6
:102C60006A008EE090E00E94BC1F8B3008F081E08B
:102C7000809369008DE090E00E94BC1F873008F0CF
:102C800082E0809367008BE090E00E94BC1F83305D
:102C900018F480939A0002C010929A008CE090E0A1
:102CA0000E94BC1F853018F480939B0002C01092D4
:102CB0009B008AE090E00E94BC1F843218F480934D
:102CC000980002C01092980089E090E00E94BC1F1A
:102CD000853028F4813019F08093970002C010925B
:102CE0009700809198008E3138F48091970084305D
:102CF00019F483E08093970088E090E00E94BC1F65
:102D0000873018F48093960002C01092960087E0F6
:102D100090E00E94BC1F8F3118F48093950002C090
:102D20001092950086E090E00E94BC1F803218F45B
:102D30008093940002C01092940085E090E00E947D
:102D4000BC1F8B3118F48093930002C01092930043
:102D500083E090E00E94C41F9C0128593840293527
:102D6000324010F080E09AE0909366008093650016
:102D700081E090E00E94C41F9C0128593840293509
:102D8000324010F080E09AE09093640080936300FA
:102D900080E090E00E94BC1F823008F081E08093C8
:102DA0006200C0E0D0E000E010E0CE018F5E9F4FF7
:102DB0006C01CE0189549F4F7C01C601800F911F89
:102DC0000E94BC1FF701E00FF11F80830F5F1F4FB0
:102DD0000830110591F72896C033D10521F780916D
:102DE0009A00811107C080919B00833098F0109267
:102DF0009B0010C0813029F480919B008330B9F78B
:102E000009C0823039F480919B00843019F084E04D
:102E100080939B00DF91CF911F910F91FF90EF90D6
:102E2000DF90CF900895AF92BF92CF92DF92EF9252
:102E3000FF920F931F93CF93DF9380E190E00E9466
:102E4000BC1F60916C00861721F080E190E00E9429
:102E5000CA1F8FE090E00E94BC1F60916A00861735
:102E600021F08FE090E00E94CA1F8EE090E00E9467
:102E7000BC1F60916900861721F08EE090E00E94EF
:102E8000CA1F8DE090E00E94BC1F6091670086170A
:102E900021F08DE090E00E94CA1F8CE090E00E943B
:102EA000BC1F60919B00861721F08CE090E00E948F
:102EB000CA1F8BE090E00E94BC1F60919A008617A9
:102EC00021F08BE090E00E94CA1F8AE090E00E940F
:102ED000BC1F60919800861721F08AE090E00E9464
:102EE000CA1F89E090E00E94BC1F6091970086177E
:102EF00021F089E090E00E94CA1F88E090E00E94E3
:102F0000BC1F60919600861721F088E090E00E9437
:102F1000CA1F87E090E00E94BC1F60919500861751
:102F200021F087E090E00E94CA1F86E090E00E94B6
:102F3000BC1F60919400861721F086E090E00E940B
:102F4000CA1F85E090E00E94BC1F60919300861725
:102F500021F085E090E00E94CA1F83E090E00E948B
:102F6000C41F60916500709166008617970721F075
:102F700083E090E00E94D71F81E090E00E94C41F90
:102F800060916300709164008617970721F081E0DB
:102F900090E00E94D71F80E090E00E94BC1F6091EB
:102FA0006200861721F080E090E00E94CA1FC0E016
:102FB000D0E000E010E0CE018F5E9F4F5C01CE01BB
:102FC00089549F4F6C017501E00EF11EC7010E94EC
:102FD000BC1FF601E00FF11F6081861719F0C701D1
:102FE0000E94CA1F0F5F1F4F0830110561F7289616
:102FF000C033D105F1F6DF91CF911F910F91FF9072
:10300000EF90DF90CF90BF90AF900895A8950E9469
:10301000131715BC0E94A60988E10FB6F89481BD6C
:1030200011BC0FBE9798C098DA98FFCF1F920F92ED
:103030000FB60F9211242F933F934F935F936F938B
:103040007F938F939F93AF93BF93CF93EF93FF9310
:103050008BE49DE10197F1F700C00000B29929C00F
:1030600080916B00813061F410926B0080E00E94CF
:10307000D70980918D008130E1F01BBE0E940618B7
:103080000E945C0AC82F8130A1F480936B0081E01C
:103090000E94D70984E00E94D70910929E001092E6
:1030A0009D0080916800811104C0C09368000E9457
:1030B000E80A0AB605FE02C080E18ABFFF91EF91DF
:1030C000CF91BF91AF919F918F917F916F915F91C0
:1030D0004F913F912F910F900FBE0F901F90189519
:1030E0000F931F93CF93DF9300D000D0CDB7DEB7FF
:1030F00080916100882309F4EFC084EC87B944E132
:1031000020E030E064EC3699FECFF89466B9369949
:10311000FECF54B185B190E0982F8827850F911D7F
:10312000280F391F7894415071F7265F3F4FA091C7
:103130006500B09166000E94931F6B5F7F4F8F4FB9
:103140009F4F20E038E240E050E00E94521F309351
:10315000920020939100CA01B9012AE030E040E0DA
:1031600050E00E94521F8901243881E0380710F096
:1031700085E017C0283791E0390710F084E011C0CE
:103180002137E1E03E0710F083E00BC02936F1E083
:103190003F0710F082E005C02D3281E0380720F0B3
:1031A00081E080939C002AC010929C00809168006E
:1031B000813099F480916900882379F0815080935F
:1031C000690029833A834B835C830E94E80A85E087
:1031D0000E94D70929813A8111C081E00E948E0A9C
:1031E00080E00E94D7099FE7EAE1F6E09150E040D5
:1031F000F040E1F700C000000E94061830939000F4
:1032000020938F00B19B0EC080918D00882309F41C
:103210005AC010928D0080916B00813009F053C02C
:1032200085E01AC080918D00811119C00F391140BD
:1032300010F481E001C082E080938D0010929E0026
:1032400010929D0080916800811105C081E08093FB
:1032500068000E94E80A84E00E94D70934C0809187
:103260008D00813031F50F39114068F182E0809393
:103270008D0080916B00813031F510929E0010928C
:103280009D0090916800911104C0809368000E9495
:10329000E80A83E00E948E0A84E00E94D7099FE337
:1032A000EDE0F3E09150E040F040E1F700C00000B5
:1032B0000AC080918D00823031F40836114018F434
:1032C00081E080938D0080918D00813011F4C09A4F
:1032D00001C0C098109261000F900F900F900F9056
:1032E000DF91CF911F910F910895CF93C82F0E9426
:1032F0005C0A8C1305C00E9470180E94E515F7CF78
:10330000CF910895AF92BF92CF92DF92EF92FF924A
:103310000F931F93CF93DF931F92CDB7DEB70E9419
:103320005C0A833008F496C48BE49DE10197F1F7C1
:1033300000C000000E945C0A833008F48BC4109225
:103340009E0010929D0080916800811105C081E06F
:10335000809368000E94E80A80916B00882331F016
:103360000E945C0A863009F002C114C011E010937B
:103370006B0081E00E94D70984E00E94D709109376
:1033800060000E945C0A882359F30E9470180E9412
:10339000E515F7CF10929F0080919A008111C1C06E
:1033A00080919B00823010F48F5FC2C080919700A3
:1033B000811146C089E683BF81E00E94D7090E943F
:1033C000EF0F0E94F50A81E08093600083E0809314
:1033D0008C000E94E5158091A100811102C086E059
:1033E00001C087E00E94D7090E945C0A8630B9F4C8
:1033F0000E94701880916000813011F40E94F50ADB
:103400000E94E5150E945C0A863071F38091A1004C
:10341000811102C086E001C087E00E94D7090E94A6
:103420005C0A873029F40E9470180E94E515F7CFD6
:1034300081E08093600080938C0088E683BF23C086
:10344000813019F580918C008130E9F48091A100E0
:103450008130C9F40E944B0C82E080938C00109262
:10346000970085E00E948E0A81E00E94D70984E0DF
:103470000E94D7099FEBE4EDF1E09150E040F0406D
:10348000E1F700C000008FEF69C0833061F48091E4
:10349000A000811104C081E08093A00002C01092BE
:1034A000A00084E05BC0843071F78091A00081119E
:1034B00010C081E08093A00010929900809360007A
:1034C0000E94E51584E00E94D70986E00E947519E4
:1034D000DACF809199008830B0F611E00E945C0A42
:1034E000863089F680919900873028F48F5F809329
:1034F000990084E001C085E01093600089830E94F8
:1035000070180E94E51590919F008981911102C069
:103510000E94D70966E986E00E94B20B8130F1F67D
:10352000B2CF813089F480919B00811104C083E087
:1035300080939B00B6CF833009F0A5CF8091A00087
:10354000882309F4A8CF9FCF823009F09CCF8091C7
:103550009B00811198CF84E080939B000E94D70943
:1035600081E0809360000E94E51586E06FC08530A1
:1035700009F06FC010929F0080919A00811141C0A4
:1035800080919B00811102C08FEF58C090919700ED
:10359000933098F1933039F49091A000913069F50F
:1035A0001092A00040C0943079F79091A000913023
:1035B00021F580919900882399F311E00E945C0A1B
:1035C000853011F780919900882319F081508093FC
:1035D0009900109360000E9470180E94E515809178
:1035E0009F00811103C084E00E94D70966E985E04D
:1035F0000E94B20B813011F7C7CF815080939B009E
:1036000012C0813091F480919B00833009F0BCCFCF
:103610008091A000813021F280919600853008F0E1
:10362000B3CF10929B0084E009C0823009F0ACCF88
:1036300080919B00843009F0A7CFF3CF0E94D70977
:1036400081E0809360000E94E51585E00E94751975
:10365000FDC2843009F065C110929F001FEF54E64F
:10366000B52E64E0D62ECC24C39406E079E6F72E7E
:10367000E3E0EE2E0E945C0A843009F0E7C220915C
:103680009B00211109C080919A00823008F0B0C0DF
:103690008F5F80939A002FC1213021F5809198008F
:1036A000833208F029C18F5F809398008E3130F407
:1036B00090919700943011F4E0929700209194003B
:1036C00090E0821B910905971CF02F5F20939400D6
:1036D00010928C0080919700813009F00CC11092FB
:1036E000970009C1223009F04BC020919700233088
:1036F00098F481E0820F8093970090918C00913034
:1037000021F49091A1009111F6C0813009F0F3C02D
:103710002E5F20939700EFC03091A00031110BC0B5
:10372000233009F0E9C0209198002E3108F4E4C05C
:1037300080939700E0C0243009F0DEC080919800AB
:1037400090E04E972091990030E043E0880F991F58
:103750004A95E1F7FC01E20FF31FE954FF4F408166
:103760004F3F21F0493321F04F5F03C040E201C0D9
:1037700040ECFC01E20FF31FE954FF4F40837DC092
:10378000233009F0A2C02091A00080919600211161
:1037900033C0843039F0863008F0AEC08F5F80933C
:1037A0009600A9C010929F0080919F008931A8F4D3
:1037B00087E99AE30197F1F700C000000E947018B2
:1037C0000E94E5150E945C0A843009F043C2809192
:1037D0009F008F5F80939F00E7CF809196008F5F5F
:1037E00080939600F3BEC0929F0084E00E94D709A8
:1037F00084E00E94751980C081110BC08091670020
:10380000811103C00093670038C081508093670026
:1038100034C0813059F480916900882309F469C06B
:103820008150809369000E94E80A27C0823059F4D1
:1038300080916A00811103C0D0926A001EC081503D
:1038400080936A001AC0833051F480916200813005
:1038500019F41092620011C0C09262000EC0843050
:1038600071F480916C00882309F443C09FEF980F96
:1038700090936C008F5F0E94B90511E03DC08530C8
:1038800081F480916500909166008939E8E09E0797
:1038900080F101979093660080936500C09261006B
:1038A00011C0863049F58091630090916400803F9B
:1038B000FAE09F07F0F40196909364008093630010
:1038C0000E94F50A11E0B12C17C02430A9F48091B0
:1038D00095008E3188F48F5F80939500209193003E
:1038E00090E0821B9109059734F02F5F209393009D
:1038F00002C015E001C014E00E947018C092600080
:103900000E94E51580919F00811103C0812F0E94C4
:10391000D7096B2D84E00E94B20B813009F0AACE4A
:1039200095C1833009F092C110929F000FEF14E609
:10393000C12E84E0F82E11E098E6E92E24E1D22E83
:103940000E945C0A833009F081C190919B00911123
:1039500009C080919A00882309F4E4C081508093C3
:103960009A005FC19130F1F490919800992309F485
:1039700059C19150909398009E3130F42091970056
:10398000243011F48093970080919400981710F4DC
:103990009093940010928C0080919700813009F0F0
:1039A00040C11AC0923009F09FC0809197008330C7
:1039B000B0F4882321F081508093970004E0809137
:1039C0008C00813021F48091A10081112BC1809164
:1039D0009700813009F026C11092970022C1909182
:1039E000A000911104C08150809397001AC18330C8
:1039F00009F055C08091980090E0880F991F60E011
:103A000070E08F5B9F4F0E94D71F8091980090E0DD
:103A1000880F991F60E070E08F529F4F0E94D71F60
:103A20008091980090E0880F991F60E070E08757C0
:103A30009F4F0E94D71FA12CB12C80919800950117
:103A4000D89E200D311D1124C90160E0875E9E4F74
:103A50000E94CA1F3FEFA31AB30A84E1A816B1045B
:103A600061F784E00E948E0A81E00E94D70984E019
:103A70000E94D7099FEDE3E9F4E09150E040F04067
:103A8000E1F700C000001092A00010936000809148
:103A90008C00823009F046C010938C0043C0843003
:103AA00009F0C0C08091980090E04E972091990055
:103AB00030E0E3E0880F991FEA95E1F7FC01E20F9F
:103AC000F31FE954FF4F4081403221F0403C21F088
:103AD000415003C04FEF01C049E3FC01E20FF31F67
:103AE000E954FF4F408363C0933009F088C0909140
:103AF000A00080919600911119C0853069F088234B
:103B000009F490C0815080939600853009F089C0F7
:103B100084E00E94D70906C0F092960084E00E94DB
:103B2000D709E3BE83E00E9475197CC081110BC0E8
:103B300080916700863019F41092670038C08F5F5B
:103B40008093670034C0813059F4809169008A30D5
:103B500008F065C08F5F809369000E94E80A27C063
:103B6000823059F480916A00843019F410926A000E
:103B70001EC08F5F80936A001AC0833051F4809119
:103B80006200813019F41092620011C0109362003B
:103B90000EC0843071F480916C00843608F03FC010
:103BA00091E0980F90936C008D5F0E94B90501E041
:103BB00039C0853081F48091650090916600803F26
:103BC0002AE0920760F50196909366008093650065
:103BD0001093610011C0863029F5809163009091A7
:103BE0006400893938E09307D0F00197909364001E
:103BF000809363000E94F50A01E0C12C13C0943049
:103C000089F480919500882369F081508093950014
:103C100090919300891728F48093930002C005E0E7
:103C200001C004E00E947018109360000E94E51526
:103C300080919F00811103C0802F0E94D7096C2DB5
:103C400083E00E94B20B813009F07ACE10929E0080
:103C500010929D000F90DF91CF911F910F91FF90D7
:103C6000EF90DF90CF90BF90AF90089584E08ABB33
:103C70008FEC8BBB89EB87BB86E488BB8AE084BB77
:103C800085EF85BB80EB81BB8FE482BB81E888B97F
:103C90000E94171684B78F7B84BF8BB780628BBF5F
:103CA00082E08EBD89B7846089BF789489E685BD3E
:103CB0009FE79CBF90919A00913049F490919B00AE
:103CC000933029F490919600953008F083BF2FE04F
:103CD00088E190E00FB6F894A89581BD0FBE21BD94
:103CE0000E94E80A0E94390B80916C008E5F0E944E
:103CF000B90584E590E00E94AF0981E00E94D709F0
:103D000084E00E94D709A8952FED83E994E0215023
:103D100080409040E1F700C000000E945C0A8130C2
:103D200019F40E947018F9CF0E94E515A895C1E01A
:103D300010E1A8950E9482190E9470180E94E51552
:103D4000E0916700EE2381F080919D0090919E00AC
:103D5000F0E0EC52FD4FE491F0E0E817F90720F4B1
:103D6000109268000E94E80A20919D0030919E0008
:103D7000E0916A00F0E0EE0FFF1FE552FD4F8591E4
:103D800094918217930710F410926B0080916B004E
:103D90008111CFCF80918D00813059F280918D00BB
:103DA0000E948E0A80916800811104C0C09368004F
:103DB0000E94E80A80E00E94D7098BB78F7D8BBFF5
:103DC000D8EC89E698E10197F1F700C000000E9465
:103DD0005C0A882301F110929E0010929D00C0930E
:103DE0006000C09368000E94E80A0E94E51583E025
:103DF0000E94D7090E945C0A8111FCCF83ED90E3F9
:103E00000197F1F700C00000C0936B001ABF8BB799
:103E100080628BBF02C0D150A1F680916B008111EE
:103E200009C080918D00813029F080E00E94D7097F
:103E30000E9406188BB780628BBF7BCF991B79E0FD
:103E400004C0991F961708F0961B881F7A95C9F72A
:103E500080950895AA1BBB1B51E107C0AA1FBB1F79
:103E6000A617B70710F0A61BB70B881F991F5A9506
:103E7000A9F780959095BC01CD01089597FB072E79
:103E800016F4009407D077FD09D00E942A1F07FC82
:103E900005D03EF4909581959F4F0895709561955A
:103EA0007F4F0895A1E21A2EAA1BBB1BFD010DC076
:103EB000AA1FBB1FEE1FFF1FA217B307E407F507DA
:103EC00020F0A21BB30BE40BF50B661F771F881FB6
:103ED000991F1A9469F760957095809590959B014C
:103EE000AC01BD01CF010895052E97FB1EF400948F
:103EF0000E948B1F57FD07D00E94521F07FC03D062
:103F00004EF40C948B1F50954095309521953F4F62
:103F10004F4F5F4F089590958095709561957F4FB5
:103F20008F4F9F4F0895A29FB001B39FC001A39FE1
:103F3000700D811D1124911DB29F700D811D1124E2
:103F4000911D08950E94931FA59F900DB49F900D01
:103F5000A49F800D911D11240895B7FF0C94A21FFA
:103F60000E94A21F821B930B0895FB01DC010190AC
:103F70000D920020E1F70895E199FECF9FBB8EBB23
:103F8000E09A99278DB30895A8E1B0E042E050E0AF
:103F90000C94DE1F262FE199FECF9FBB8EBB2DBB5D
:103FA0000FB6F894E29AE19A0FBE019608950E9426
:103FB000CA1F272F0C94CB1FDC01CB01FC01E19918
:103FC000FECF06C0FFBBEEBBE09A31960DB20D925C
:0C3FD00041505040B8F70895F894FFCF1E
:103FDC00010101000A000A02010102014605024624
:103FEC00030320202020202020200020C2003F3F5F
:0C3FFC003F3F2E3F003F3F3F3F3F000093
:00000001FF
